{
  "_format": "hh-sol-artifact-1",
  "contractName": "Token",
  "sourceName": "contracts/Token.sol",
  "abi": [
    {
      "inputs": [
        {
          "internalType": "string",
          "name": "_name",
          "type": "string"
        },
        {
          "internalType": "string",
          "name": "_symbol",
          "type": "string"
        },
        {
          "internalType": "uint256",
          "name": "_totalSupply",
          "type": "uint256"
        }
      ],
      "stateMutability": "nonpayable",
      "type": "constructor"
    },
    {
      "anonymous": false,
      "inputs": [
        {
          "indexed": true,
          "internalType": "address",
          "name": "owner",
          "type": "address"
        },
        {
          "indexed": true,
          "internalType": "address",
          "name": "spender",
          "type": "address"
        },
        {
          "indexed": false,
          "internalType": "uint256",
          "name": "value",
          "type": "uint256"
        }
      ],
      "name": "Approval",
      "type": "event"
    },
    {
      "anonymous": false,
      "inputs": [
        {
          "indexed": true,
          "internalType": "address",
          "name": "from",
          "type": "address"
        },
        {
          "indexed": true,
          "internalType": "address",
          "name": "to",
          "type": "address"
        },
        {
          "indexed": false,
          "internalType": "uint256",
          "name": "value",
          "type": "uint256"
        }
      ],
      "name": "Transfer",
      "type": "event"
    },
    {
      "inputs": [
        {
          "internalType": "address",
          "name": "",
          "type": "address"
        },
        {
          "internalType": "address",
          "name": "",
          "type": "address"
        }
      ],
      "name": "allowance",
      "outputs": [
        {
          "internalType": "uint256",
          "name": "",
          "type": "uint256"
        }
      ],
      "stateMutability": "view",
      "type": "function"
    },
    {
      "inputs": [
        {
          "internalType": "address",
          "name": "_spender",
          "type": "address"
        },
        {
          "internalType": "uint256",
          "name": "_value",
          "type": "uint256"
        }
      ],
      "name": "approve",
      "outputs": [
        {
          "internalType": "bool",
          "name": "succes",
          "type": "bool"
        }
      ],
      "stateMutability": "nonpayable",
      "type": "function"
    },
    {
      "inputs": [
        {
          "internalType": "address",
          "name": "",
          "type": "address"
        }
      ],
      "name": "balanceOf",
      "outputs": [
        {
          "internalType": "uint256",
          "name": "",
          "type": "uint256"
        }
      ],
      "stateMutability": "view",
      "type": "function"
    },
    {
      "inputs": [],
      "name": "decimals",
      "outputs": [
        {
          "internalType": "uint256",
          "name": "",
          "type": "uint256"
        }
      ],
      "stateMutability": "view",
      "type": "function"
    },
    {
      "inputs": [],
      "name": "freeTokens",
      "outputs": [
        {
          "internalType": "bool",
          "name": "succes",
          "type": "bool"
        }
      ],
      "stateMutability": "nonpayable",
      "type": "function"
    },
    {
      "inputs": [
        {
          "internalType": "address",
          "name": "",
          "type": "address"
        }
      ],
      "name": "freeTokensClaimed",
      "outputs": [
        {
          "internalType": "bool",
          "name": "",
          "type": "bool"
        }
      ],
      "stateMutability": "view",
      "type": "function"
    },
    {
      "inputs": [],
      "name": "name",
      "outputs": [
        {
          "internalType": "string",
          "name": "",
          "type": "string"
        }
      ],
      "stateMutability": "view",
      "type": "function"
    },
    {
      "inputs": [],
      "name": "symbol",
      "outputs": [
        {
          "internalType": "string",
          "name": "",
          "type": "string"
        }
      ],
      "stateMutability": "view",
      "type": "function"
    },
    {
      "inputs": [],
      "name": "totalSupply",
      "outputs": [
        {
          "internalType": "uint256",
          "name": "",
          "type": "uint256"
        }
      ],
      "stateMutability": "view",
      "type": "function"
    },
    {
      "inputs": [
        {
          "internalType": "address",
          "name": "_to",
          "type": "address"
        },
        {
          "internalType": "uint256",
          "name": "_value",
          "type": "uint256"
        }
      ],
      "name": "transfer",
      "outputs": [
        {
          "internalType": "bool",
          "name": "success",
          "type": "bool"
        }
      ],
      "stateMutability": "nonpayable",
      "type": "function"
    },
    {
      "inputs": [
        {
          "internalType": "address",
          "name": "_from",
          "type": "address"
        },
        {
          "internalType": "address",
          "name": "_to",
          "type": "address"
        },
        {
          "internalType": "uint256",
          "name": "_value",
          "type": "uint256"
        }
      ],
      "name": "transferFrom",
      "outputs": [
        {
          "internalType": "bool",
          "name": "succes",
          "type": "bool"
        }
      ],
      "stateMutability": "nonpayable",
      "type": "function"
    }
  ],
  "bytecode": "0x608060405260126002553480156200001657600080fd5b5060405162001a5638038062001a5683398181016040528101906200003c919062000418565b82600090805190602001906200005492919062000190565b5081600190805190602001906200006d92919062000190565b50600254600a6200007f919062000635565b816200008c919062000686565b600381905550600254600a620000a3919062000635565b6103e8620000b2919062000686565b600460003373ffffffffffffffffffffffffffffffffffffffff1673ffffffffffffffffffffffffffffffffffffffff16815260200190815260200160002081905550600460003373ffffffffffffffffffffffffffffffffffffffff1673ffffffffffffffffffffffffffffffffffffffff16815260200190815260200160002054600354620001449190620006e7565b600460003073ffffffffffffffffffffffffffffffffffffffff1673ffffffffffffffffffffffffffffffffffffffff1681526020019081526020016000208190555050505062000787565b8280546200019e9062000751565b90600052602060002090601f016020900481019282620001c257600085556200020e565b82601f10620001dd57805160ff19168380011785556200020e565b828001600101855582156200020e579182015b828111156200020d578251825591602001919060010190620001f0565b5b5090506200021d919062000221565b5090565b5b808211156200023c57600081600090555060010162000222565b5090565b6000604051905090565b600080fd5b600080fd5b600080fd5b600080fd5b6000601f19601f8301169050919050565b7f4e487b7100000000000000000000000000000000000000000000000000000000600052604160045260246000fd5b620002a9826200025e565b810181811067ffffffffffffffff82111715620002cb57620002ca6200026f565b5b80604052505050565b6000620002e062000240565b9050620002ee82826200029e565b919050565b600067ffffffffffffffff8211156200031157620003106200026f565b5b6200031c826200025e565b9050602081019050919050565b60005b83811015620003495780820151818401526020810190506200032c565b8381111562000359576000848401525b50505050565b6000620003766200037084620002f3565b620002d4565b90508281526020810184848401111562000395576200039462000259565b5b620003a284828562000329565b509392505050565b600082601f830112620003c257620003c162000254565b5b8151620003d48482602086016200035f565b91505092915050565b6000819050919050565b620003f281620003dd565b8114620003fe57600080fd5b50565b6000815190506200041281620003e7565b92915050565b6000806000606084860312156200043457620004336200024a565b5b600084015167ffffffffffffffff8111156200045557620004546200024f565b5b6200046386828701620003aa565b935050602084015167ffffffffffffffff8111156200048757620004866200024f565b5b6200049586828701620003aa565b9250506040620004a88682870162000401565b9150509250925092565b7f4e487b7100000000000000000000000000000000000000000000000000000000600052601160045260246000fd5b60008160011c9050919050565b6000808291508390505b60018511156200054057808604811115620005185762000517620004b2565b5b6001851615620005285780820291505b80810290506200053885620004e1565b9450620004f8565b94509492505050565b6000826200055b57600190506200062e565b816200056b57600090506200062e565b81600181146200058457600281146200058f57620005c5565b60019150506200062e565b60ff841115620005a457620005a3620004b2565b5b8360020a915084821115620005be57620005bd620004b2565b5b506200062e565b5060208310610133831016604e8410600b8410161715620005ff5782820a905083811115620005f957620005f8620004b2565b5b6200062e565b6200060e8484846001620004ee565b92509050818404811115620006285762000627620004b2565b5b81810290505b9392505050565b60006200064282620003dd565b91506200064f83620003dd565b92506200067e7fffffffffffffffffffffffffffffffffffffffffffffffffffffffffffffffff848462000549565b905092915050565b60006200069382620003dd565b9150620006a083620003dd565b9250817fffffffffffffffffffffffffffffffffffffffffffffffffffffffffffffffff0483118215151615620006dc57620006db620004b2565b5b828202905092915050565b6000620006f482620003dd565b91506200070183620003dd565b925082821015620007175762000716620004b2565b5b828203905092915050565b7f4e487b7100000000000000000000000000000000000000000000000000000000600052602260045260246000fd5b600060028204905060018216806200076a57607f821691505b6020821081141562000781576200078062000722565b5b50919050565b6112bf80620007976000396000f3fe608060405234801561001057600080fd5b50600436106100a95760003560e01c80634022c7e5116100715780634022c7e5146101685780636fe8f9c51461019857806370a08231146101b657806395d89b41146101e6578063a9059cbb14610204578063dd62ed3e14610234576100a9565b806306fdde03146100ae578063095ea7b3146100cc57806318160ddd146100fc57806323b872dd1461011a578063313ce5671461014a575b600080fd5b6100b6610264565b6040516100c39190610bcc565b60405180910390f35b6100e660048036038101906100e19190610c87565b6102f2565b6040516100f39190610ce2565b60405180910390f35b61010461041d565b6040516101119190610d0c565b60405180910390f35b610134600480360381019061012f9190610d27565b610423565b6040516101419190610ce2565b60405180910390f35b610152610684565b60405161015f9190610d0c565b60405180910390f35b610182600480360381019061017d9190610d7a565b61068a565b60405161018f9190610ce2565b60405180910390f35b6101a06106aa565b6040516101ad9190610ce2565b60405180910390f35b6101d060048036038101906101cb9190610d7a565b610845565b6040516101dd9190610d0c565b60405180910390f35b6101ee61085d565b6040516101fb9190610bcc565b60405180910390f35b61021e60048036038101906102199190610c87565b6108eb565b60405161022b9190610ce2565b60405180910390f35b61024e60048036038101906102499190610da7565b610988565b60405161025b9190610d0c565b60405180910390f35b6000805461027190610e16565b80601f016020809104026020016040519081016040528092919081815260200182805461029d90610e16565b80156102ea5780601f106102bf576101008083540402835291602001916102ea565b820191906000526020600020905b8154815290600101906020018083116102cd57829003601f168201915b505050505081565b60008073ffffffffffffffffffffffffffffffffffffffff168373ffffffffffffffffffffffffffffffffffffffff16141561032d57600080fd5b81600560003373ffffffffffffffffffffffffffffffffffffffff1673ffffffffffffffffffffffffffffffffffffffff16815260200190815260200160002060008573ffffffffffffffffffffffffffffffffffffffff1673ffffffffffffffffffffffffffffffffffffffff168152602001908152602001600020819055508273ffffffffffffffffffffffffffffffffffffffff163373ffffffffffffffffffffffffffffffffffffffff167f8c5be1e5ebec7d5bd14f71427d1e84f3dd0314c0f7b2291e5b200ac8c7c3b9258460405161040b9190610d0c565b60405180910390a36001905092915050565b60035481565b6000600460008573ffffffffffffffffffffffffffffffffffffffff1673ffffffffffffffffffffffffffffffffffffffff168152602001908152602001600020548211156104a7576040517f08c379a000000000000000000000000000000000000000000000000000000000815260040161049e90610e94565b60405180910390fd5b600560008573ffffffffffffffffffffffffffffffffffffffff1673ffffffffffffffffffffffffffffffffffffffff16815260200190815260200160002060003373ffffffffffffffffffffffffffffffffffffffff1673ffffffffffffffffffffffffffffffffffffffff16815260200190815260200160002054821115610566576040517f08c379a000000000000000000000000000000000000000000000000000000000815260040161055d90610f00565b60405180910390fd5b81600560008673ffffffffffffffffffffffffffffffffffffffff1673ffffffffffffffffffffffffffffffffffffffff16815260200190815260200160002060003373ffffffffffffffffffffffffffffffffffffffff1673ffffffffffffffffffffffffffffffffffffffff168152602001908152602001600020546105ee9190610f4f565b600560008673ffffffffffffffffffffffffffffffffffffffff1673ffffffffffffffffffffffffffffffffffffffff16815260200190815260200160002060003373ffffffffffffffffffffffffffffffffffffffff1673ffffffffffffffffffffffffffffffffffffffff168152602001908152602001600020819055506106798484846109ad565b600190509392505050565b60025481565b60066020528060005260406000206000915054906101000a900460ff1681565b6000801515600660003373ffffffffffffffffffffffffffffffffffffffff1673ffffffffffffffffffffffffffffffffffffffff16815260200190815260200160002060009054906101000a900460ff1615151461073e576040517f08c379a000000000000000000000000000000000000000000000000000000000815260040161073590610fcf565b60405180910390fd5b6064600460003073ffffffffffffffffffffffffffffffffffffffff1673ffffffffffffffffffffffffffffffffffffffff1681526020019081526020016000205410156107c1576040517f08c379a00000000000000000000000000000000000000000000000000000000081526004016107b89061103b565b60405180910390fd5b6107e63033600254600a6107d5919061118e565b60646107e191906111d9565b6109ad565b6001600660003373ffffffffffffffffffffffffffffffffffffffff1673ffffffffffffffffffffffffffffffffffffffff16815260200190815260200160002060006101000a81548160ff0219169083151502179055506001905090565b60046020528060005260406000206000915090505481565b6001805461086a90610e16565b80601f016020809104026020016040519081016040528092919081815260200182805461089690610e16565b80156108e35780601f106108b8576101008083540402835291602001916108e3565b820191906000526020600020905b8154815290600101906020018083116108c657829003601f168201915b505050505081565b600081600460003373ffffffffffffffffffffffffffffffffffffffff1673ffffffffffffffffffffffffffffffffffffffff16815260200190815260200160002054101561093957600080fd5b600073ffffffffffffffffffffffffffffffffffffffff168373ffffffffffffffffffffffffffffffffffffffff16141561097357600080fd5b61097e3384846109ad565b6001905092915050565b6005602052816000526040600020602052806000526040600020600091509150505481565b80600460008573ffffffffffffffffffffffffffffffffffffffff1673ffffffffffffffffffffffffffffffffffffffff168152602001908152602001600020546109f89190610f4f565b600460008573ffffffffffffffffffffffffffffffffffffffff1673ffffffffffffffffffffffffffffffffffffffff1681526020019081526020016000208190555080600460008473ffffffffffffffffffffffffffffffffffffffff1673ffffffffffffffffffffffffffffffffffffffff16815260200190815260200160002054610a869190611233565b600460008473ffffffffffffffffffffffffffffffffffffffff1673ffffffffffffffffffffffffffffffffffffffff168152602001908152602001600020819055508173ffffffffffffffffffffffffffffffffffffffff168373ffffffffffffffffffffffffffffffffffffffff167fddf252ad1be2c89b69c2b068fc378daa952ba7f163c4a11628f55a4df523b3ef83604051610b269190610d0c565b60405180910390a3505050565b600081519050919050565b600082825260208201905092915050565b60005b83811015610b6d578082015181840152602081019050610b52565b83811115610b7c576000848401525b50505050565b6000601f19601f8301169050919050565b6000610b9e82610b33565b610ba88185610b3e565b9350610bb8818560208601610b4f565b610bc181610b82565b840191505092915050565b60006020820190508181036000830152610be68184610b93565b905092915050565b600080fd5b600073ffffffffffffffffffffffffffffffffffffffff82169050919050565b6000610c1e82610bf3565b9050919050565b610c2e81610c13565b8114610c3957600080fd5b50565b600081359050610c4b81610c25565b92915050565b6000819050919050565b610c6481610c51565b8114610c6f57600080fd5b50565b600081359050610c8181610c5b565b92915050565b60008060408385031215610c9e57610c9d610bee565b5b6000610cac85828601610c3c565b9250506020610cbd85828601610c72565b9150509250929050565b60008115159050919050565b610cdc81610cc7565b82525050565b6000602082019050610cf76000830184610cd3565b92915050565b610d0681610c51565b82525050565b6000602082019050610d216000830184610cfd565b92915050565b600080600060608486031215610d4057610d3f610bee565b5b6000610d4e86828701610c3c565b9350506020610d5f86828701610c3c565b9250506040610d7086828701610c72565b9150509250925092565b600060208284031215610d9057610d8f610bee565b5b6000610d9e84828501610c3c565b91505092915050565b60008060408385031215610dbe57610dbd610bee565b5b6000610dcc85828601610c3c565b9250506020610ddd85828601610c3c565b9150509250929050565b7f4e487b7100000000000000000000000000000000000000000000000000000000600052602260045260246000fd5b60006002820490506001821680610e2e57607f821691505b60208210811415610e4257610e41610de7565b5b50919050565b7f696e73756666696369656e742062616c616e6365000000000000000000000000600082015250565b6000610e7e601483610b3e565b9150610e8982610e48565b602082019050919050565b60006020820190508181036000830152610ead81610e71565b9050919050565b7f696e73756666696369656e7420616c6c6f77616e636500000000000000000000600082015250565b6000610eea601683610b3e565b9150610ef582610eb4565b602082019050919050565b60006020820190508181036000830152610f1981610edd565b9050919050565b7f4e487b7100000000000000000000000000000000000000000000000000000000600052601160045260246000fd5b6000610f5a82610c51565b9150610f6583610c51565b925082821015610f7857610f77610f20565b5b828203905092915050565b7f68616420616c726561647920636c61696d6564206672656520746f6b656e7300600082015250565b6000610fb9601f83610b3e565b9150610fc482610f83565b602082019050919050565b60006020820190508181036000830152610fe881610fac565b9050919050565b7f4e6f206d6d6f7265206672656520746f6b656e73206c65667400000000000000600082015250565b6000611025601983610b3e565b915061103082610fef565b602082019050919050565b6000602082019050818103600083015261105481611018565b9050919050565b60008160011c9050919050565b6000808291508390505b60018511156110b25780860481111561108e5761108d610f20565b5b600185161561109d5780820291505b80810290506110ab8561105b565b9450611072565b94509492505050565b6000826110cb5760019050611187565b816110d95760009050611187565b81600181146110ef57600281146110f957611128565b6001915050611187565b60ff84111561110b5761110a610f20565b5b8360020a91508482111561112257611121610f20565b5b50611187565b5060208310610133831016604e8410600b841016171561115d5782820a90508381111561115857611157610f20565b5b611187565b61116a8484846001611068565b9250905081840481111561118157611180610f20565b5b81810290505b9392505050565b600061119982610c51565b91506111a483610c51565b92506111d17fffffffffffffffffffffffffffffffffffffffffffffffffffffffffffffffff84846110bb565b905092915050565b60006111e482610c51565b91506111ef83610c51565b9250817fffffffffffffffffffffffffffffffffffffffffffffffffffffffffffffffff048311821515161561122857611227610f20565b5b828202905092915050565b600061123e82610c51565b915061124983610c51565b9250827fffffffffffffffffffffffffffffffffffffffffffffffffffffffffffffffff0382111561127e5761127d610f20565b5b82820190509291505056fea2646970667358221220599df0403c81aa897f472be9021c6a88a0eb9fb26e7cbd195cefb9daf37d464664736f6c63430008090033",
  "linkReferences": {},
  "deployedLinkReferences": {}
}